:100000000C942A000C9447000C9447000C94470071
:100010000C9447000C9447000C9447000C94470044
:100020000C9447000C9447000C9447000C94470034
:100030000C9447000C9447000C9447000C94470024
:100040000C9447000C9447000C9447000C94470014
:100050000C94470011241FBECFE5D8E0DEBFCDBF12
:1000600010E0A0E6B0E0E0EFF1E102C005900D92F3
:10007000A43EB107D9F727E0A4EEB0E001C01D927D
:10008000A033B207E1F70E949B000C94F6080C9491
:100090000000089525B3E1E2F7E0328181E090E0CD
:1000A000AC0101C0440F3A95EAF7242B25BB22E0AE
:1000B0002A95F1F700C025B3328101C0880F3A9527
:1000C000EAF78095822385BB87EC90E00197F1F7F2
:1000D00000C000000895E1E2F7E0A381B4818C93B1
:1000E00045B3208181E090E0BC0102C0660F771F1C
:1000F0002A95E2F79B012095242325BB25B3318166
:1001000001C0880F3A95EAF78095822385BB0C944D
:100110004A00AA9A80E80E946B0087EC90E0019761
:10012000F1F700C000008FE39CE90197F1F700C0F0
:100130000000AA980895CF93DF93CDB7DEB7C055DE
:10014000D1090FB6F894DEBF0FBECDBF85E0809316
:10015000210786E08093220787E08093230782E3CC
:1001600090E090932507809324078FEF84BB81BB99
:10017000AF988FE99FE00197F1F700C0000088E396
:100180000E946B008CE00E946B0081E00E946B007B
:10019000AFE9BFE01197F1F700C0000086E00E94D0
:1001A0006B00E4EEF0E08DE396E0DF019C011D9230
:1001B00021503040E1F780E5EAE6F0E0AE014F5F24
:1001C0005F4F7A01DA0101900D928A95E1F780E59F
:1001D000FA01A4EEB0E001900D928A95E1F780E07B
:1001E00092E0909318058093170589E490E090932E
:1001F0001E0780931D0789E890E090932007809365
:100200001F0786E2EAEBF0E0A4EEB2E001900D9267
:100210008A95E1F788E0DA011D928A95E9F750EEB8
:10022000452E50E0552ECC24C394D12C74E1A72E3A
:1002300075E0B72E88248A94912C809117059091AF
:1002400018058632A2E09A0708F0FFCFFC01EC51B6
:10025000FF4F2081318123273227232730931C052C
:1002600020931B050296909318058093170580E84C
:100270000E946B00E7ECF0E03197F1F700C000005E
:100280008FE39CE90197F1F700C0000080911C0505
:100290008F9380911B058F935F924F92FF92EF9205
:1002A0000E9455060F900F900F900F900F900F9097
:1002B00010E0F701E10FF11D8081811133C0EFE300
:1002C000FCE93197F1F700C0000060901B057090C9
:1002D0001C05172D1F70B30144E0769567954A956C
:1002E000E1F76F70462D4F70C3019F70E72DE295C7
:1002F000EF70F0E03197EF30F10508F05AC0ED579C
:10030000FE4F0C943B06F201E101F70104021002DA
:10031000210227022E02E0024A03F102F602BC018A
:100320001D011A03E0912407F0912507808385B30E
:1003300090912107960101C0220F9A95EAF7822B2E
:1003400085BB25B380912207D60102C0AA0FBB1F2F
:100350008A95E2F7CD018095822385BB85B3909184
:100360002307960101C0220F9A95EAF7822B85BBDD
:100370000E944A001F5F9DCF209115053091160500
:10038000F901EC51FF4FADE1B5E0642E712CCF01C6
:10039000821B930B845E90408615970508F431C14B
:1003A00070E0E0911F07F0912007812F90E0099500
:1003B00044CF411142CFE0911D07F0911E070995EE
:1003C0003CCF20910405E22FF0E0EE0FFF1FEC512F
:1003D000FB4F4091170550911805518340832F5FC3
:1003E00020930405909318058093170526CF8091DC
:1003F000170590911805E12FF0E0EB5FFA4F30817F
:1004000063121BCF0296EECF8091170590911805CD
:10041000E12FF0E0EB5FFA4F30816312F3CF0DCFA5
:100420008091170590911805A12FB0E0AB5FBA4FEE
:10043000E62FF0E0EB5FFA4F3C9120813213FDCEC6
:10044000E1CFE12FF0E0EB5FFA4F6082F6CEE12FD3
:10045000F0E0EB5FFA4F8081680EF7CF493008F08B
:10046000ECCEE42FF0E0E75CFD4F812F90E00C94A0
:100470003B0642024C02580263026E029002AF0237
:10048000B902D602E62FF0E0EB5FFA4F20818B5FD6
:100490009A4FDC012C93D1CEFC01EB5FFA4FA62FD3
:1004A000B0E0AB5FBA4F80819C91892B8083C5CE31
:1004B000FC01EB5FFA4FA62FB0E0AB5FBA4F808133
:1004C0009C918923F3CFFC01EB5FFA4FA62FB0E09C
:1004D000AB5FBA4F80819C918927E8CF70E08C5147
:1004E0009F4FFC01EF5DFB4F20816C517F4FFB0163
:1004F000EF5DFB4F3081230F3327331F41E02F3F48
:10050000310509F00CF440E040931405FC01EF5D67
:10051000FB4F6F5D7B4F8081DB019C91890FC6CFC4
:1005200070E0FC01EC51FF4F9F012F5D3B4F6C5180
:100530007F4FAB014F5D5B4F91E0D9012C91DA0108
:100540008C91821708F090E090931405EF5DFB4FBB
:100550006F5D7B4F8081DB019C91891BA7CFFC01E4
:10056000EB5FFA4F808181708093140580818695BE
:100570009DCF70E06C517F4FDB01AF5DBB4FFC0145
:10058000EC51FF4F9F012F5D3B4F91E04C91D90102
:100590008C91841708F090E090931405EF5DFB4F69
:1005A0006F5D7B4FDB018C919081D7CFFC01EB5FBE
:1005B000FA4F80818170809314058081880F76CFF7
:1005C0008091170590911805A12FB0E0AB5FBA4F4D
:1005D000E62FF0E0EB5FFA4F3C912081321312CF0F
:1005E0002CCE20910505820F911DFCCE0E94C603E2
:1005F000E12FF0E0EB5FFA4FB4010E94270668227A
:1006000024CF81918C9311968C93119712968C9391
:10061000129713968C93139714968C9314971596A0
:100620008C93159716968C93169717968C9317970D
:100630009096ADCE7724B8E16B167104B9F188F4C9
:10064000F7E06F16710459F125E16216710409F0A3
:10065000F4CDE12FF0E0EB5FFA4F80818093190534
:10066000ECCD35E56316710449F145E66416710475
:1006700099F15EE16516710409F0DFCDE12FF0E03C
:10068000EB5FFA4F80812091150530911605820F9E
:10069000932F911D9093160580931505CECDE12FD4
:1006A000F0E0EB5FFA4F8091190500CFE12FF0E009
:1006B000EB5FFA4F808180931A05BFCDA5E0B5E0CE
:1006C000E0911505F0911605EC51FF4F8D91819346
:1006D000AA16BB06D9F7B1CDE0911505F091160524
:1006E000EC51FF4FA5E0B5E081918D93AA16BB06B2
:1006F000D9F7A3CD8F929F92AF92BF92CF92DF9204
:10070000EF92FF92CF93DF93EC01688179818A8128
:100710009B81611571058105910521F464E279EDF4
:100720008BE597E02DE133EF41E050E00E948D052D
:1007300049015A019B01AC01A7EAB1E40E94AC0552
:100740006B017C01ACEEB4EFA50194010E94BA05E7
:10075000DC01CB018C0D9D1DAE1DBF1DB7FF03C07D
:100760000197A109B04888839983AA83BB839F77A7
:10077000DF91CF91FF90EF90DF90CF90BF90AF903F
:100780009F908F9008950E947A03089580E690E0EC
:100790000E947A030895B0E0A0E0809360009093F7
:1007A0006100A0936200B09363000895FC0123816F
:1007B00027FF23C020912607309127078217930730
:1007C00021F41092270710922607209128073091D4
:1007D00029078217930721F41092290710922807FE
:1007E00020912A0730912B072817390721F41092FE
:1007F0002B0710922A070E94C80490E080E0089519
:10080000B0E0A0E0E6E0F4E00C94C5055B014A012D
:100810007901F9012381D0E0C0E020FF17C0C8159D
:10082000D905A1F08C016C01CA0CDB1C09C0C70101
:100830000E9451058F3F980749F0F80181938F017D
:10084000C8010C151D0599F72196E9CFCE01CDB74A
:10085000DEB7ECE00C94E1050F931F93CF93DF9389
:100860008230910510F482E090E0E0912E07F09143
:100870002F0730E020E0B0E0A0E0309799F4211598
:10088000310509F44AC0281B390B24303105D8F54D
:100890008A819B816115710589F1FB0193838283B4
:1008A000FE0111C04081518102811381481759070F
:1008B000E0F04817590799F4109761F012960C93DD
:1008C000129713961C933296CF01DF91CF911F910F
:1008D0000F91089500932E0710932F07F4CF211541
:1008E000310551F04217530738F0A901DB019A0195
:1008F000BD01DF01F801C1CFEF01F9CF90932F07C0
:1009000080932E07CDCFFE01E20FF31F81939193C9
:100910002250310939832883D7CF20912C07309179
:100920002D07232B41F4209166003091670030930E
:100930002D0720932C07209164003091650021152C
:10094000310541F42DB73EB74091680050916900E0
:10095000241B350BE0912C07F0912D07E217F307CC
:10096000A0F42E1B3F0B2817390778F0AC014E5F1F
:100970005F4F2417350748F04E0F5F1F50932D0728
:1009800040932C07819391939FCFF0E0E0E09CCFC0
:10099000CF93DF930097E9F0FC0132971382128224
:1009A000A0912E07B0912F07ED0130E020E01097C5
:1009B000A1F420813181820F931F20912C07309167
:1009C0002D072817390709F061C0F0932D07E09330
:1009D0002C07DF91CF910895EA01CE17DF07E8F5E4
:1009E0004A815B819E0141155105B1F7E901FB8305
:1009F000EA8349915991C40FD51FEC17FD0761F4A3
:100A0000808191810296840F951FE90199838883E3
:100A1000828193819B838A83F0E0E0E012968D913E
:100A20009C9113970097B9F52D913C911197CD01A9
:100A30000296820F931F20912C0730912D072817C3
:100A4000390739F6309751F510922F0710922E077B
:100A5000B0932D07A0932C07BCCFD383C2834081D2
:100A60005181840F951FC817D90761F44E5F5F4FFE
:100A700088819981480F591F518340838A819B81C6
:100A8000938382832115310509F0B0CFF0932F07AE
:100A9000E0932E079ECFFD01DC01C0CF13821282AE
:100AA000D7CFCF93DF93EC012B8120FF1AC026FF15
:100AB0000CC02F7B2B838E819F8101969F838E8319
:100AC0008A8190E0DF91CF91089522FF18C0E881DC
:100AD000F9818081082E000C990B009729F420627F
:100AE0002B838FEF9FEFEECF3196F983E8832E8132
:100AF0003F812F5F3F4F3F832E839927E3CFEA85C6
:100B0000FB85099597FFF3CF2B81019621F080E2B9
:100B1000822B8B83E6CF80E1FBCF052E97FB1EF463
:100B200000940E94A40557FD07D00E94F60507FC1B
:100B300003D04EF40C94A405509540953095219522
:100B40003F4F4F4F5F4F08959095809570956195F9
:100B50007F4F8F4F9F4F08950E941806A59F900DBD
:100B6000B49F900DA49F800D911D11240895B7FF8F
:100B70000C94AC050E94AC05821B930B08952F9238
:100B80003F924F925F926F927F928F929F92AF921D
:100B9000BF92CF92DF92EF92FF920F931F93CF936A
:100BA000DF93CDB7DEB7CA1BDB0B0FB6F894DEBF01
:100BB0000FBECDBF09942A88398848885F846E8427
:100BC0007D848C849B84AA84B984C884DF80EE8071
:100BD000FD800C811B81AA81B981CE0FD11D0FB67A
:100BE000F894DEBF0FBECDBFED010895A1E21A2E2D
:100BF000AA1BBB1BFD010DC0AA1FBB1FEE1FFF1FC1
:100C0000A217B307E407F50720F0A21BB30BE40B10
:100C1000F50B661F771F881F991F1A9469F7609557
:100C20007095809590959B01AC01BD01CF01089511
:100C3000A29FB001B39FC001A39F700D811D11241D
:100C4000911DB29F700D811D1124911D089597FB78
:100C5000072E16F4009407D077FD09D00E944106B4
:100C600007FC05D03EF4909581959F4F08957095AF
:100C700061957F4F0895EE0FFF1F0590F491E02DD1
:100C80000994AA1BBB1B51E107C0AA1FBB1FA617D3
:100C9000B70710F0A61BB70B881F991F5A95A9F725
:100CA00080959095BC01CD010895AEE0B0E0EBE5F4
:100CB000F6E00C94CD050D891E8986E08C831A839D
:100CC00009838FEF9FE79E838D83AE01475E5F4F61
:100CD0006F89788DCE0101960E9478062F81388524
:100CE000020F131FF80110822E96E4E00C94E90520
:100CF000ABE0B0E0EEE7F6E00C94BF057C013B0111
:100D00008A01FC0117821682838181FFC8C1CE014E
:100D100001965C01F7019381F30193FD859193FFA7
:100D200081913F01882309F453C1853239F493FD41
:100D3000859193FF81913F01853229F4B70190E0BD
:100D40000E946808E7CF912C212C312CFFE1F3158C
:100D500038F08B3211F190F4803209F1833229F1AD
:100D600037FC3CC020ED280F2A3050F536FE20C05D
:100D70008AE0989E200D1124922E06C08D3291F0AB
:100D8000803371F7689430F8F30193FD859193FFF8
:100D900081913F018111DACF21C0689431F86894C4
:100DA00032F8F2CF689433F8EFCF689434F8ECCF90
:100DB000EAE02E9E200D1124222E689435F8E4CF0F
:100DC0008E3229F436FC04C1689436F8DDCF8C36B7
:100DD00019F4689437F8D8CF8836B1F2982F9F7DF0
:100DE00095549330E0F08336A1F18337C1F1833518
:100DF00009F063C02801F2E04F0E511CF801C080D9
:100E0000D180692D70E036FC02C06FEF7FEFC60124
:100E10000E9452084C01689437F882010AC00C5FA6
:100E20001F4FFFE3F98388248394912C6501E89494
:100E300037F833FE2DC0522C8114910471F55520E2
:100E400009F468CFB70180E290E00E9468085A94E4
:100E5000F6CFF801808189830E5F1F4FE4CF280110
:100E6000F2E04F0E511CF801C080D180692D70E076
:100E700036FC02C06FEF7FEFC6010E945D084C0197
:100E80008201D5CFB70180E290E00E9468082A94E1
:100E90002814190409F0B0F7CECFF60137FC85917C
:100EA00037FE81916F01B70190E00E9468085110F0
:100EB0005A94F1E08F1A9108BFCF843619F0893621
:100EC00009F077C0F80137FE6BC0608171818281C3
:100ED00093810C5F1F4FF32DFF763F2E97FF09C0C4
:100EE00090958095709561957F4F8F4F9F4F689437
:100EF00037F82AE030E0A5010E949808C82ECA18E9
:100F00008C2C432C36FE0CC0E89440F8C91440F4F5
:100F100034FE05C032FC03C0F32DFE7E4F2E892C1B
:100F200044FE95C0FE01EC0DF11D8081803309F077
:100F300087C0242D297E422E842D8870582E43FC94
:100F400095C040FE8FC09C2C821418F42C0C922C5F
:100F5000981844FE91C0B70180E390E00E946808B1
:100F600042FE09C088E790E041FE02C088E590E0BB
:100F7000B7010E946808C91408F48AC0CA94D12C29
:100F80009FEFC91AD90ACA0CDB1CF60182916F01C6
:100F9000B70190E00E946808AC14BD04B1F74FCFD0
:100FA00060817181072E000C880B990B0E5F1F4F1B
:100FB00092CFD32CE894D4F82AE030E0853739F189
:100FC000232D297FD22E8F3601F148F48835A9F0E0
:100FD000F701868197812B96E2E10C94DB0580373F
:100FE00049F08837A9F7D4FE02C06894D2F820E10E
:100FF00030E00DC06894D4F8F6CF34FE03C0822FE1
:101000008660D82E20E132E002C028E030E0F8010E
:10101000D7FE0FC060817181828193810C5F1F4F69
:10102000A5010E949808C82ECA183D2CE89437F8EC
:1010300067CF6081718190E080E00E5F1F4FF0CF3D
:1010400042FC02C0839478CF8394839475CF842D1F
:10105000867809F471CFF6CFB70180E290E00E9464
:10106000680883948214C0F3512C73CF522C581803
:10107000821408F46ECFF8CF842D867809F47BCFE4
:101080008BE241FE80E247FC8DE2B70190E071CF38
:10109000B70180E390E00E9468089A946CCF8FEFCC
:1010A0009FEF99CFFC010590615070400110D8F777
:1010B000809590958E0F9F1F0895FC0161507040A0
:1010C00001900110D8F7809590958E0F9F1F08957D
:1010D0000F931F93CF93DF93182F092FEB018B8171
:1010E00081FD09C01FEF0FEF812F902FDF91CF916E
:1010F0001F910F91089582FF14C02E813F818C8132
:101100009D81281739073CF4E881F981CF010196C8
:101110009983888310838E819F8101969F838E831C
:10112000E3CFE885F985812F0995892BA1F3DACFE3
:10113000FA01AA27283051F1203181F1E8946F9308
:101140006E7F6E5F7F4F8F4F9F4FAF4FB1E03ED0AE
:10115000B4E03CD0670F781F891F9A1FA11D680F4C
:10116000791F8A1F911DA11D6A0F711D811D911D7F
:10117000A11D20D009F468943F912AE0269F1124F4
:101180003019305D3193DEF6CF010895462F477058
:10119000405D4193B3E00FD0C9F7F6CF462F4F70B3
:1011A000405D4A3318F0495D31FD4052419302D011
:1011B000A9F7EACFB4E0A6959795879577956795B7
:1011C000BA95C9F700976105710508959B01AC01B7
:1011D0000A2E06945795479537952795BA95C9F7DE
:1011E000620F731F841F951FA01D0895F894FFCFF1
:1011F00001000000000030072000F0909090F020E7
:1012000060202070F010F080F0F010F010F090905E
:10121000F01010F080F010F0F080F090F0F010205E
:101220004040F090F090F0F090F010F0F090F090DE
:1012300090E090E090E0F0808080F0E0909090E08E
:10124000F080F080F0F080F0808060006100A222E9
:10125000C2013201A21ED01470043040120460009A
:10126000710431201204121C804020102040801094
:0412700020255800DD
:00000001FF
